S0150000657374696D627265616B6F75742E7372656390
S113000019C028C027C026C025C024C023C022C0D0
S113001021C020C01FC01EC01DC01CC01BC01AC0F0
S113002019C018C017C016C015C014C013C012C020
S113003011C010C011241FBECFEFCDBFDFE3DEBF60
S11300402FE3A0E8BFE301C01D92A538B207E1F792
S11300500DD164C1D5CFE0E0F6E081E0808396E085
S1130060918397E5928390EA93838087838580FFC9
S1130070FDCFE0E0F6E061898089682B70E08EE3D3
S1130080282F30E0F901EE0FFF1FEE0FFF1FE05E97
S1130090FC47408151814617570760F0220F331FF8
S11300A0220F331FF901E05EFC472281338162177E
S11300B0730718F4815020F780E00895E0E0F4E03D
S11300C0818180668183E0E2F4E081818C608183B8
S11300D00895E0E2F4E0818183608183E0E1F8E067
S11300E08FEF868381E1838381EC8783858186FF1B
S11300F0FDCF0895E0E0F4E081818460818381E2B2
S1130100809320080895E0E2F8E083818823ECF7E7
S113011008951F93CF93DF93182F8091843FC0E2FB
S1130120D8E08C83F0DF8C81112309F449C0282F97
S1130130217080FF28C0E0E0F4E094819F79906210
S11301409583982F927081FF08C0E0E2F4E08481E7
S1130150837F84608583222329F1E0E0F4E08481B5
S11301608F7980648583992399F0E0E2F4E08481B7
S1130170837F88608583211118C0E0E2F4E08481E4
S1130180837F85831DC0982F927081FDDECF18C0B8
S11301902223B1F010C0E0E2F4E08481837F886020
S11301A08583EBCF9923A1F3F6CFE0E0F4E08481DB
S11301B08F798583E2CFE0E0F4E084818F798583D1
S11301C0DF91CF911F910895E0E1F8E0858186FFEA
S11301D0FDCF0895CF93882321F0C82F94DFC15019
S11301E0E9F7CF9108950F931F93CF93DF93162FC1
S11301F0072F880F880FC0E1D8E08887E5DF0887DC
S1130200E3DF1887E1DFDF91CF911F910F9108950C
S1130210CF92DF92EF92FF920F931F93CF93DF93CE
S1130220D82EE62EF12C8701000F111F0058104C18
S1130230F8018181C0E2D8E08C8365DFCC80F801CD
S113024080818C8360DF6C81DD2039F070E07C2953
S1130250F80160837183C701C6DFDF91CF911F91DD
S11302600F91FF90EF90DF90CF90089527DFF3DE9A
S11302708093843F2EDF3EDFC0E2D8E044DF8C81F0
S1130280482F4F7150E02091843F30E042175307CC
S113029039F5282F207630E0359527953595279523
S11302A03595279535952795359527952230310530
S11302B059F02330310571F021303105F9F6881FEA
S11302C08827881F26DFDACF60E0881F8827881FE9
S11302D09FDFD4CF61E0881F8827881F99DFCECFA6
S11302E0807690E0959587959595879595958795D2
S11302F095958795959587958230910549F083303A
S1130300910549F0019709F0B9CF81E063DFB6CFD9
S113031082E060DFB3CF82E05DDFB0CFF894FFCF3F
S1130320000013004C015601D800EA009201980124
S11303307900930073017B011B012701AB01B0011C
S11303403A005A0061016901FC000B019F01A401FC
S1130350AD00C20083018A0135014001B601BA0132
S11303601400390057016001EB00FB0099019E0164
S11303709400AC007C01820128013401B101B50173
S11303805B0078006A0172010C011A01A501AA013F
S1130390C300D7008B01910141014B01BB01FF0355
S11303A00000000000000000000000000000000049
S11303B00000000000000000000000000000000039
S11303C00000000000000000000000000000000029
S11303D00000000000000000000000000000000019
S11303E00000000000000000000000000000000009
S11303F000000000000000000000000000000000F9
S113040000000000000000000000000000000000E8
S10F0410000000000000000000000000DC
S9030000FC
